{
  "contractName": "ToDoList",
  "abi": [
    {
      "inputs": [],
      "payable": false,
      "stateMutability": "nonpayable",
      "type": "constructor"
    },
    {
      "constant": true,
      "inputs": [
        {
          "internalType": "uint256",
          "name": "",
          "type": "uint256"
        }
      ],
      "name": "tasks",
      "outputs": [
        {
          "internalType": "uint256",
          "name": "id",
          "type": "uint256"
        },
        {
          "internalType": "string",
          "name": "content",
          "type": "string"
        },
        {
          "internalType": "bool",
          "name": "completed",
          "type": "bool"
        }
      ],
      "payable": false,
      "stateMutability": "view",
      "type": "function"
    },
    {
      "constant": false,
      "inputs": [
        {
          "internalType": "string",
          "name": "_content",
          "type": "string"
        }
      ],
      "name": "createTask",
      "outputs": [],
      "payable": false,
      "stateMutability": "nonpayable",
      "type": "function"
    }
  ],
  "bytecode": "0x60806040526000805534801561001457600080fd5b5061003f6040518060600160405280602381526020016104cf602391396001600160e01b0361004416565b61014b565b6000805460019081018083556040805160608101825282815260208082018781528284018790529386528481529190942084518155915180519293610091939085019291909101906100b0565b50604091909101516002909101805460ff191691151591909117905550565b828054600181600116156101000203166002900490600052602060002090601f016020900481019282601f106100f157805160ff191683800117855561011e565b8280016001018555821561011e579182015b8281111561011e578251825591602001919060010190610103565b5061012a92915061012e565b5090565b61014891905b8082111561012a5760008155600101610134565b90565b6103758061015a6000396000f3fe608060405234801561001057600080fd5b50600436106100365760003560e01c8063111002aa1461003b5780638d977672146100e3575b600080fd5b6100e16004803603602081101561005157600080fd5b81019060208101813564010000000081111561006c57600080fd5b82018360208201111561007e57600080fd5b803590602001918460018302840111640100000000831117156100a057600080fd5b91908080601f01602080910402602001604051908101604052809392919081815260200183838082843760009201919091525092955061018a945050505050565b005b610100600480360360208110156100f957600080fd5b50356101f6565b604051808481526020018060200183151515158152602001828103825284818151815260200191508051906020019080838360005b8381101561014d578181015183820152602001610135565b50505050905090810190601f16801561017a5780820380516001836020036101000a031916815260200191505b5094505050505060405180910390f35b60008054600190810180835560408051606081018252828152602080820187815282840187905293865284815291909420845181559151805192936101d7939085019291909101906102a5565b50604091909101516002909101805460ff191691151591909117905550565b600160208181526000928352604092839020805481840180548651600296821615610100026000190190911695909504601f810185900485028601850190965285855290949193929091908301828280156102925780601f1061026757610100808354040283529160200191610292565b820191906000526020600020905b81548152906001019060200180831161027557829003601f168201915b5050506002909301549192505060ff1683565b828054600181600116156101000203166002900490600052602060002090601f016020900481019282601f106102e657805160ff1916838001178555610313565b82800160010185558215610313579182015b828111156103135782518255916020019190600101906102f8565b5061031f929150610323565b5090565b61033d91905b8082111561031f5760008155600101610329565b9056fea265627a7a72315820f2270144357b3108f51b4f7938e45c8c1cc46386710e48376bb55679a3a9f23864736f6c634300051000324472696e6b2032206c697474657273206f66207761746572206576657279206461792e",
  "source": "pragma solidity ^0.5.0;\n/**+-VER LOS COMÁNDOS BÁSICOS DE TRUFFLE EN:_\nhttps://www.trufflesuite.com/docs/truffle/reference/truffle-commands .*/\ncontract ToDoList {\n  uint taskCount = 0;\n\n  /**+-Las \"Struct\" de Solidity son como los \"Models\"(La Estructura Modelo de Datos) en los que se basan los \"Documents\" de las Bases de Datos.*/\n  struct Task {\n    uint id;\n    string content;\n    bool completed;\n  }\n/**+-Mapping in Solidity:_ https://www.geeksforgeeks.org/solidity-mappings/ */\n  mapping(uint => Task) public tasks;\n\nconstructor() public {\n  createTask(\"Drink 2 litters of water every day.\");\n}\n\n  function createTask(string memory _content) public {\n    taskCount ++;\n    tasks[taskCount] = Task(taskCount, _content, false);\n  }\n\n/**+-I will explain this function:_\n\n1-First, we create the function with the function keyword, and give it a name createTask()\n2-We allow the function to accept one argument called \"_content\", which will be the text for the task. \nWe specify that this argument will be of \"string\" data type, and that it will persist in \"memory\".\n3-We set the function visibility to \"public\" so that it can be called outside of the smart contract, like in the console,\n or from the client side for example.\n4-Inside the function, we create an \"id\" for the new task. We simply take the existing taskCount and increment it by 1.\n5-Now we create a new task \"Document\" based on the \"struct\" by calling Task(taskCount, _content, false); and passing in the values for the new task.\n6-Next, we store the new task on the Blockchain by adding it to the tasks mapping like this: task[taskCount] = ..... .*/\n}",
  "sourcePath": "C:/Users/Public/Documents/Personal-Programming-Proyects/My-First-Blockchain-App/contracts/ToDoList.sol",
  "compiler": {
    "name": "solc",
    "version": "0.5.16+commit.9c3226ce.Emscripten.clang"
  },
  "schemaVersion": "3.3.3",
  "updatedAt": "2021-01-08T21:34:25.135Z",
  "networkType": "ethereum",
  "devdoc": {
    "methods": {}
  },
  "userdoc": {
    "methods": {},
    "notice": "+-VER LOS COMÁNDOS BÁSICOS DE TRUFFLE EN:_ https://www.trufflesuite.com/docs/truffle/reference/truffle-commands ."
  }
}