{
  "contractName": "ToDoList",
  "abi": [
    {
      "inputs": [],
      "payable": false,
      "stateMutability": "nonpayable",
      "type": "constructor"
    },
    {
      "anonymous": false,
      "inputs": [
        {
          "indexed": false,
          "internalType": "uint256",
          "name": "id",
          "type": "uint256"
        },
        {
          "indexed": false,
          "internalType": "string",
          "name": "content",
          "type": "string"
        },
        {
          "indexed": false,
          "internalType": "bool",
          "name": "completed",
          "type": "bool"
        }
      ],
      "name": "TaskCreated",
      "type": "event"
    },
    {
      "constant": true,
      "inputs": [
        {
          "internalType": "uint256",
          "name": "",
          "type": "uint256"
        }
      ],
      "name": "tasks",
      "outputs": [
        {
          "internalType": "uint256",
          "name": "id",
          "type": "uint256"
        },
        {
          "internalType": "string",
          "name": "content",
          "type": "string"
        },
        {
          "internalType": "bool",
          "name": "completed",
          "type": "bool"
        }
      ],
      "payable": false,
      "stateMutability": "view",
      "type": "function"
    },
    {
      "constant": false,
      "inputs": [
        {
          "internalType": "string",
          "name": "_content",
          "type": "string"
        }
      ],
      "name": "createTask",
      "outputs": [],
      "payable": false,
      "stateMutability": "nonpayable",
      "type": "function"
    }
  ],
  "bytecode": "0x60806040526000805534801561001457600080fd5b5061003f60405180606001604052806023815260200161063f602391396001600160e01b0361004416565b610203565b600080546001908101808355604080516060810182528281526020808201878152828401879052938652848152919094208451815591518051929361009193908501929190910190610168565b5060408201518160020160006101000a81548160ff0219169083151502179055509050507f05d0fb833127fc08168556d0e7ca9554fc3f6bc843b3b7d2bf1c35aea6bab660600054826000604051808481526020018060200183151515158152602001828103825284818151815260200191508051906020019080838360005b83811015610129578181015183820152602001610111565b50505050905090810190601f1680156101565780820380516001836020036101000a031916815260200191505b5094505050505060405180910390a150565b828054600181600116156101000203166002900490600052602060002090601f016020900481019282601f106101a957805160ff19168380011785556101d6565b828001600101855582156101d6579182015b828111156101d65782518255916020019190600101906101bb565b506101e29291506101e6565b5090565b61020091905b808211156101e257600081556001016101ec565b90565b61042d806102126000396000f3fe608060405234801561001057600080fd5b50600436106100365760003560e01c8063111002aa1461003b5780638d977672146100e3575b600080fd5b6100e16004803603602081101561005157600080fd5b81019060208101813564010000000081111561006c57600080fd5b82018360208201111561007e57600080fd5b803590602001918460018302840111640100000000831117156100a057600080fd5b91908080601f01602080910402602001604051908101604052809392919081815260200183838082843760009201919091525092955061018a945050505050565b005b610100600480360360208110156100f957600080fd5b50356102ae565b604051808481526020018060200183151515158152602001828103825284818151815260200191508051906020019080838360005b8381101561014d578181015183820152602001610135565b50505050905090810190601f16801561017a5780820380516001836020036101000a031916815260200191505b5094505050505060405180910390f35b60008054600190810180835560408051606081018252828152602080820187815282840187905293865284815291909420845181559151805192936101d79390850192919091019061035d565b5060408201518160020160006101000a81548160ff0219169083151502179055509050507f05d0fb833127fc08168556d0e7ca9554fc3f6bc843b3b7d2bf1c35aea6bab660600054826000604051808481526020018060200183151515158152602001828103825284818151815260200191508051906020019080838360005b8381101561026f578181015183820152602001610257565b50505050905090810190601f16801561029c5780820380516001836020036101000a031916815260200191505b5094505050505060405180910390a150565b600160208181526000928352604092839020805481840180548651600296821615610100026000190190911695909504601f8101859004850286018501909652858552909491939290919083018282801561034a5780601f1061031f5761010080835404028352916020019161034a565b820191906000526020600020905b81548152906001019060200180831161032d57829003601f168201915b5050506002909301549192505060ff1683565b828054600181600116156101000203166002900490600052602060002090601f016020900481019282601f1061039e57805160ff19168380011785556103cb565b828001600101855582156103cb579182015b828111156103cb5782518255916020019190600101906103b0565b506103d79291506103db565b5090565b6103f591905b808211156103d757600081556001016103e1565b9056fea265627a7a72315820258ef130b22460e6dc3bc143480af2c757b75bbbe9ddf9b6840218e01845309164736f6c634300051000324472696e6b2032206c697474657273206f66207761746572206576657279206461792e",
  "source": "pragma solidity ^0.5.0;\n/**+-VER LOS COMÁNDOS BÁSICOS DE TRUFFLE EN:_\nhttps://www.trufflesuite.com/docs/truffle/reference/truffle-commands .*/\ncontract ToDoList {\n  uint taskCount = 0;\n\n  /**+-Las \"Struct\" de Solidity son como los \"Models\"(La Estructura Modelo de Datos) en los que se basan los \"Documents\" de las Bases de Datos.*/\n  struct Task {\n    uint id;\n    string content;\n    bool completed;\n  }\n/**+-Mapping in Solidity:_ https://www.geeksforgeeks.org/solidity-mappings/ */\n  mapping(uint => Task) public tasks;\n\nevent TaskCreated(\n  uint id,\n  string content,\n  bool completed\n);\n\nconstructor() public {\n  createTask('Drink 2 litters of water every day.');\n}\n\n  function createTask(string memory _content) public {\n    taskCount ++;\n    tasks[taskCount] = Task(taskCount, _content, false);\n/**+-I will explain this function:_\n\n1-First, we create the function with the function keyword, and give it a name createTask()\n2-We allow the function to accept one argument called \"_content\", which will be the text for the task. \nWe specify that this argument will be of \"string\" data type, and that it will persist in \"memory\".\n3-We set the function visibility to \"public\" so that it can be called outside of the smart contract, like in the console,\n or from the client side for example.\n4-Inside the function, we create an \"id\" for the new task. We simply take the existing taskCount and increment it by 1.\n5-Now we create a new task \"Document\" based on the \"struct\" by calling Task(taskCount, _content, false); and passing in the values for the new task.\n6-Next, we store the new task on the Blockchain by adding it to the tasks mapping like this: task[taskCount] = ..... .*/\n    emit TaskCreated(taskCount, _content, false);\n  }\n\n\n}",
  "sourcePath": "C:/Users/Public/Documents/Personal-Programming-Proyects/My-First-Blockchain-App/contracts/ToDoList.sol",
  "compiler": {
    "name": "solc",
    "version": "0.5.16+commit.9c3226ce.Emscripten.clang"
  },
  "schemaVersion": "3.3.3",
  "updatedAt": "2021-01-11T19:15:05.081Z",
  "networkType": "ethereum",
  "devdoc": {
    "methods": {}
  },
  "userdoc": {
    "methods": {},
    "notice": "+-VER LOS COMÁNDOS BÁSICOS DE TRUFFLE EN:_ https://www.trufflesuite.com/docs/truffle/reference/truffle-commands ."
  }
}